:100000000C9434000C9451000C9451000C94510049
:100010000C9451000C94F4000C9451000C94510079
:100020000C9451000C9451000C9451000C9451000C
:100030000C9451000C9451000C9463000C945100EA
:100040000C9451000C9451000C9451000C945100EC
:100050000C9451000C9451000C9451000C945100DC
:100060000C9451000C94510011241FBECFEFD8E026
:10007000DEBFCDBF11E0A0E0B1E0EEECF3E002C0E6
:1000800005900D92AC30B107D9F721E0ACE0B1E0BA
:1000900001C01D92A531B207E1F70E947C010C94CA
:1000A000E5010C9400005D9895B19F7395B981119D
:1000B00002C02E9A0895813011F42F9A089582304B
:1000C00009F45D9A08951F920F920FB60F921124B2
:1000D0002F933F934F935F936F937F938F939F9350
:1000E000AF93BF93EF93FF93E0911101F0E0EE5EC9
:1000F000FE4FE081F0E0EF5FFE4F808188B9809194
:1001000011010E945300809111018F5F80931101B2
:1001100080911101833010F01092110180910F0134
:10012000882309F449C080910D0190910E01019638
:1001300090930E0180930D0180910C0181110DC0EF
:10014000E0E8F0E080818068808381E080930C01AA
:1001500010920E0110920D0136C080910C01813079
:10016000A1F480910D0190910E01883C910568F0F9
:10017000E0E8F0E080818F77808382E080930C015B
:1001800010920E0110920D011EC080910C01823060
:10019000D1F480910D0190910E018639910598F06E
:1001A00010920C0110920E0110920D0180910F011E
:1001B000815080930F0107C0E0E8F0E080818F77E5
:1001C000808310920C01FF91EF91BF91AF919F91AD
:1001D0008F917F916F915F914F913F912F910F90F0
:1001E0000FBE0F901F9018951F920F920FB60F928F
:1001F00011242F935F936F937F938F939F93AF936C
:10020000BF93EF93FF9329B121FD0EC080910001B0
:1002100081FF0AC0E2E1F1E0808190E001966AE0AE
:1002200070E00E94BD01808322FD0EC0809100011C
:1002300082FF0AC0E2E1F1E0818190E001966AE08C
:1002400070E00E94BD01818323FD0EC080910001FA
:1002500083FF0AC0E2E1F1E0828190E001966AE06A
:1002600070E00E94BD01828324FD35C080910001B1
:1002700084FF31C080911201813001F5809113011A
:100280008230E1F4809114018330C1F49091100127
:1002900081E089278093100110920E0110920D01C8
:1002A00010920C0180911001882321F082E080934C
:1002B0000F0111C081E080930F010DC080911001EA
:1002C000811109C010920E0110920D0110920C01C3
:1002D0008AE080930F0120930001FF91EF91BF917D
:1002E000AF919F918F917F916F915F912F910F901F
:1002F0000FBE0F901F90189587B18F6787B9559AD9
:1003000084B1806C84B98AB1817E8AB98BB18E61E7
:100310008BB984B1886184B9219A2C9A2B9882E098
:1003200084BD99EF97BD80936E0093E095BD809357
:1003300080008AE1809381008BED95E090938700A7
:10034000809386008EEE92E09093890080938800DF
:10035000E8E6F0E0808184608083EDE6F0E0808173
:100360008E618083789480911001882319F02B9AF4
:100370002C98F9CF2C9A2B98F6CF97FB072E16F4D2
:10038000009407D077FD09D00E94D10107FC05D069
:100390003EF4909581959F4F0895709561957F4F9C
:1003A0000895AA1BBB1B51E107C0AA1FBB1FA617BC
:1003B000B70710F0A61BB70B881F991F5A95A9F70E
:0E03C00080959095BC01CD010895F894FFCF73
:0C03CE00FF7E306D79335B5F707F7B0039
:00000001FF
